{
  "_format": "hh-sol-artifact-1",
  "contractName": "Farcraft",
  "sourceName": "contracts/Farcraft.sol",
  "abi": [
    {
      "anonymous": false,
      "inputs": [
        {
          "indexed": true,
          "internalType": "address",
          "name": "owner",
          "type": "address"
        },
        {
          "indexed": true,
          "internalType": "address",
          "name": "approved",
          "type": "address"
        },
        {
          "indexed": true,
          "internalType": "uint256",
          "name": "tokenId",
          "type": "uint256"
        }
      ],
      "name": "Approval",
      "type": "event"
    },
    {
      "anonymous": false,
      "inputs": [
        {
          "indexed": true,
          "internalType": "address",
          "name": "owner",
          "type": "address"
        },
        {
          "indexed": true,
          "internalType": "address",
          "name": "operator",
          "type": "address"
        },
        {
          "indexed": false,
          "internalType": "bool",
          "name": "approved",
          "type": "bool"
        }
      ],
      "name": "ApprovalForAll",
      "type": "event"
    },
    {
      "anonymous": false,
      "inputs": [
        {
          "indexed": true,
          "internalType": "address",
          "name": "delegator",
          "type": "address"
        },
        {
          "indexed": true,
          "internalType": "address",
          "name": "fromDelegate",
          "type": "address"
        },
        {
          "indexed": true,
          "internalType": "address",
          "name": "toDelegate",
          "type": "address"
        }
      ],
      "name": "DelegateChanged",
      "type": "event"
    },
    {
      "anonymous": false,
      "inputs": [
        {
          "indexed": true,
          "internalType": "address",
          "name": "delegate",
          "type": "address"
        },
        {
          "indexed": false,
          "internalType": "uint256",
          "name": "previousBalance",
          "type": "uint256"
        },
        {
          "indexed": false,
          "internalType": "uint256",
          "name": "newBalance",
          "type": "uint256"
        }
      ],
      "name": "DelegateVotesChanged",
      "type": "event"
    },
    {
      "anonymous": false,
      "inputs": [
        {
          "indexed": false,
          "internalType": "uint8",
          "name": "version",
          "type": "uint8"
        }
      ],
      "name": "Initialized",
      "type": "event"
    },
    {
      "anonymous": false,
      "inputs": [
        {
          "indexed": false,
          "internalType": "uint16",
          "name": "_srcChainId",
          "type": "uint16"
        },
        {
          "indexed": false,
          "internalType": "bytes",
          "name": "_srcAddress",
          "type": "bytes"
        },
        {
          "indexed": false,
          "internalType": "uint64",
          "name": "_nonce",
          "type": "uint64"
        },
        {
          "indexed": false,
          "internalType": "bytes",
          "name": "_payload",
          "type": "bytes"
        }
      ],
      "name": "MessageFailed",
      "type": "event"
    },
    {
      "anonymous": false,
      "inputs": [
        {
          "indexed": true,
          "internalType": "address",
          "name": "previousOwner",
          "type": "address"
        },
        {
          "indexed": true,
          "internalType": "address",
          "name": "newOwner",
          "type": "address"
        }
      ],
      "name": "OwnershipTransferred",
      "type": "event"
    },
    {
      "anonymous": false,
      "inputs": [
        {
          "indexed": true,
          "internalType": "uint16",
          "name": "_srcChainId",
          "type": "uint16"
        },
        {
          "indexed": true,
          "internalType": "bytes",
          "name": "_srcAddress",
          "type": "bytes"
        },
        {
          "indexed": true,
          "internalType": "address",
          "name": "_toAddress",
          "type": "address"
        },
        {
          "indexed": false,
          "internalType": "uint256",
          "name": "_tokenId",
          "type": "uint256"
        },
        {
          "indexed": false,
          "internalType": "uint64",
          "name": "_nonce",
          "type": "uint64"
        }
      ],
      "name": "ReceiveFromChain",
      "type": "event"
    },
    {
      "anonymous": false,
      "inputs": [
        {
          "indexed": true,
          "internalType": "bytes32",
          "name": "role",
          "type": "bytes32"
        },
        {
          "indexed": true,
          "internalType": "bytes32",
          "name": "previousAdminRole",
          "type": "bytes32"
        },
        {
          "indexed": true,
          "internalType": "bytes32",
          "name": "newAdminRole",
          "type": "bytes32"
        }
      ],
      "name": "RoleAdminChanged",
      "type": "event"
    },
    {
      "anonymous": false,
      "inputs": [
        {
          "indexed": true,
          "internalType": "bytes32",
          "name": "role",
          "type": "bytes32"
        },
        {
          "indexed": true,
          "internalType": "address",
          "name": "account",
          "type": "address"
        },
        {
          "indexed": true,
          "internalType": "address",
          "name": "sender",
          "type": "address"
        }
      ],
      "name": "RoleGranted",
      "type": "event"
    },
    {
      "anonymous": false,
      "inputs": [
        {
          "indexed": true,
          "internalType": "bytes32",
          "name": "role",
          "type": "bytes32"
        },
        {
          "indexed": true,
          "internalType": "address",
          "name": "account",
          "type": "address"
        },
        {
          "indexed": true,
          "internalType": "address",
          "name": "sender",
          "type": "address"
        }
      ],
      "name": "RoleRevoked",
      "type": "event"
    },
    {
      "anonymous": false,
      "inputs": [
        {
          "indexed": true,
          "internalType": "address",
          "name": "_sender",
          "type": "address"
        },
        {
          "indexed": true,
          "internalType": "uint16",
          "name": "_dstChainId",
          "type": "uint16"
        },
        {
          "indexed": true,
          "internalType": "bytes",
          "name": "_toAddress",
          "type": "bytes"
        },
        {
          "indexed": false,
          "internalType": "uint256",
          "name": "_tokenId",
          "type": "uint256"
        },
        {
          "indexed": false,
          "internalType": "uint64",
          "name": "_nonce",
          "type": "uint64"
        }
      ],
      "name": "SendToChain",
      "type": "event"
    },
    {
      "anonymous": false,
      "inputs": [
        {
          "indexed": false,
          "internalType": "uint16",
          "name": "_dstChainId",
          "type": "uint16"
        },
        {
          "indexed": false,
          "internalType": "uint256",
          "name": "_type",
          "type": "uint256"
        },
        {
          "indexed": false,
          "internalType": "uint256",
          "name": "_dstGasAmount",
          "type": "uint256"
        }
      ],
      "name": "SetMinDstGasLookup",
      "type": "event"
    },
    {
      "anonymous": false,
      "inputs": [
        {
          "indexed": false,
          "internalType": "uint16",
          "name": "_srcChainId",
          "type": "uint16"
        },
        {
          "indexed": false,
          "internalType": "bytes",
          "name": "_srcAddress",
          "type": "bytes"
        }
      ],
      "name": "SetTrustedRemote",
      "type": "event"
    },
    {
      "anonymous": false,
      "inputs": [
        {
          "indexed": false,
          "internalType": "bool",
          "name": "_useCustomAdapterParams",
          "type": "bool"
        }
      ],
      "name": "SetUseCustomAdapterParams",
      "type": "event"
    },
    {
      "anonymous": false,
      "inputs": [
        {
          "indexed": true,
          "internalType": "address",
          "name": "from",
          "type": "address"
        },
        {
          "indexed": true,
          "internalType": "address",
          "name": "to",
          "type": "address"
        },
        {
          "indexed": true,
          "internalType": "uint256",
          "name": "tokenId",
          "type": "uint256"
        }
      ],
      "name": "Transfer",
      "type": "event"
    },
    {
      "inputs": [],
      "name": "DEFAULT_ADMIN_ROLE",
      "outputs": [
        {
          "internalType": "bytes32",
          "name": "",
          "type": "bytes32"
        }
      ],
      "stateMutability": "view",
      "type": "function"
    },
    {
      "inputs": [],
      "name": "DOMAIN_SEPARATOR",
      "outputs": [
        {
          "internalType": "bytes32",
          "name": "",
          "type": "bytes32"
        }
      ],
      "stateMutability": "view",
      "type": "function"
    },
    {
      "inputs": [],
      "name": "FUNCTION_TYPE_SEND",
      "outputs": [
        {
          "internalType": "uint256",
          "name": "",
          "type": "uint256"
        }
      ],
      "stateMutability": "view",
      "type": "function"
    },
    {
      "inputs": [],
      "name": "MINTER_ROLE",
      "outputs": [
        {
          "internalType": "bytes32",
          "name": "",
          "type": "bytes32"
        }
      ],
      "stateMutability": "view",
      "type": "function"
    },
    {
      "inputs": [],
      "name": "NO_EXTRA_GAS",
      "outputs": [
        {
          "internalType": "uint256",
          "name": "",
          "type": "uint256"
        }
      ],
      "stateMutability": "view",
      "type": "function"
    },
    {
      "inputs": [
        {
          "internalType": "uint256",
          "name": "_id",
          "type": "uint256"
        },
        {
          "components": [
            {
              "internalType": "string",
              "name": "name",
              "type": "string"
            },
            {
              "internalType": "uint256",
              "name": "nextMintId",
              "type": "uint256"
            },
            {
              "internalType": "uint256",
              "name": "maxMintId",
              "type": "uint256"
            },
            {
              "internalType": "bool",
              "name": "publicMint",
              "type": "bool"
            },
            {
              "internalType": "uint256",
              "name": "mintPrice",
              "type": "uint256"
            }
          ],
          "internalType": "struct Farcraft.Category",
          "name": "_category",
          "type": "tuple"
        }
      ],
      "name": "addOrUpdateCategory",
      "outputs": [],
      "stateMutability": "nonpayable",
      "type": "function"
    },
    {
      "inputs": [
        {
          "internalType": "address",
          "name": "to",
          "type": "address"
        },
        {
          "internalType": "uint256",
          "name": "tokenId",
          "type": "uint256"
        }
      ],
      "name": "approve",
      "outputs": [],
      "stateMutability": "nonpayable",
      "type": "function"
    },
    {
      "inputs": [
        {
          "internalType": "address",
          "name": "owner",
          "type": "address"
        }
      ],
      "name": "balanceOf",
      "outputs": [
        {
          "internalType": "uint256",
          "name": "",
          "type": "uint256"
        }
      ],
      "stateMutability": "view",
      "type": "function"
    },
    {
      "inputs": [
        {
          "internalType": "uint256",
          "name": "tokenId",
          "type": "uint256"
        }
      ],
      "name": "burn",
      "outputs": [],
      "stateMutability": "nonpayable",
      "type": "function"
    },
    {
      "inputs": [
        {
          "internalType": "uint256",
          "name": "",
          "type": "uint256"
        }
      ],
      "name": "categories",
      "outputs": [
        {
          "internalType": "string",
          "name": "name",
          "type": "string"
        },
        {
          "internalType": "uint256",
          "name": "nextMintId",
          "type": "uint256"
        },
        {
          "internalType": "uint256",
          "name": "maxMintId",
          "type": "uint256"
        },
        {
          "internalType": "bool",
          "name": "publicMint",
          "type": "bool"
        },
        {
          "internalType": "uint256",
          "name": "mintPrice",
          "type": "uint256"
        }
      ],
      "stateMutability": "view",
      "type": "function"
    },
    {
      "inputs": [],
      "name": "contractURI",
      "outputs": [
        {
          "internalType": "string",
          "name": "",
          "type": "string"
        }
      ],
      "stateMutability": "view",
      "type": "function"
    },
    {
      "inputs": [
        {
          "internalType": "address",
          "name": "delegatee",
          "type": "address"
        }
      ],
      "name": "delegate",
      "outputs": [],
      "stateMutability": "nonpayable",
      "type": "function"
    },
    {
      "inputs": [
        {
          "internalType": "address",
          "name": "delegatee",
          "type": "address"
        },
        {
          "internalType": "uint256",
          "name": "nonce",
          "type": "uint256"
        },
        {
          "internalType": "uint256",
          "name": "expiry",
          "type": "uint256"
        },
        {
          "internalType": "uint8",
          "name": "v",
          "type": "uint8"
        },
        {
          "internalType": "bytes32",
          "name": "r",
          "type": "bytes32"
        },
        {
          "internalType": "bytes32",
          "name": "s",
          "type": "bytes32"
        }
      ],
      "name": "delegateBySig",
      "outputs": [],
      "stateMutability": "nonpayable",
      "type": "function"
    },
    {
      "inputs": [
        {
          "internalType": "address",
          "name": "account",
          "type": "address"
        }
      ],
      "name": "delegates",
      "outputs": [
        {
          "internalType": "address",
          "name": "",
          "type": "address"
        }
      ],
      "stateMutability": "view",
      "type": "function"
    },
    {
      "inputs": [
        {
          "internalType": "uint16",
          "name": "_dstChainId",
          "type": "uint16"
        },
        {
          "internalType": "bytes",
          "name": "_toAddress",
          "type": "bytes"
        },
        {
          "internalType": "uint256",
          "name": "_tokenId",
          "type": "uint256"
        },
        {
          "internalType": "bool",
          "name": "_useZro",
          "type": "bool"
        },
        {
          "internalType": "bytes",
          "name": "_adapterParams",
          "type": "bytes"
        }
      ],
      "name": "estimateSendFee",
      "outputs": [
        {
          "internalType": "uint256",
          "name": "nativeFee",
          "type": "uint256"
        },
        {
          "internalType": "uint256",
          "name": "zroFee",
          "type": "uint256"
        }
      ],
      "stateMutability": "view",
      "type": "function"
    },
    {
      "inputs": [
        {
          "internalType": "uint16",
          "name": "_dstChainId",
          "type": "uint16"
        },
        {
          "internalType": "address",
          "name": "_from",
          "type": "address"
        },
        {
          "internalType": "address",
          "name": "_to",
          "type": "address"
        },
        {
          "internalType": "uint256",
          "name": "_tokenId",
          "type": "uint256"
        }
      ],
      "name": "evmEstimateSendFee",
      "outputs": [
        {
          "internalType": "uint256",
          "name": "nativeFee",
          "type": "uint256"
        },
        {
          "internalType": "uint256",
          "name": "zroFee",
          "type": "uint256"
        }
      ],
      "stateMutability": "view",
      "type": "function"
    },
    {
      "inputs": [
        {
          "internalType": "uint16",
          "name": "_dstChainId",
          "type": "uint16"
        },
        {
          "internalType": "uint256",
          "name": "_tokenId",
          "type": "uint256"
        }
      ],
      "name": "evmSend",
      "outputs": [],
      "stateMutability": "payable",
      "type": "function"
    },
    {
      "inputs": [
        {
          "internalType": "uint16",
          "name": "",
          "type": "uint16"
        },
        {
          "internalType": "bytes",
          "name": "",
          "type": "bytes"
        },
        {
          "internalType": "uint64",
          "name": "",
          "type": "uint64"
        }
      ],
      "name": "failedMessages",
      "outputs": [
        {
          "internalType": "bytes32",
          "name": "",
          "type": "bytes32"
        }
      ],
      "stateMutability": "view",
      "type": "function"
    },
    {
      "inputs": [
        {
          "internalType": "uint16",
          "name": "_srcChainId",
          "type": "uint16"
        },
        {
          "internalType": "bytes",
          "name": "_srcAddress",
          "type": "bytes"
        }
      ],
      "name": "forceResumeReceive",
      "outputs": [],
      "stateMutability": "nonpayable",
      "type": "function"
    },
    {
      "inputs": [
        {
          "internalType": "uint256",
          "name": "tokenId",
          "type": "uint256"
        }
      ],
      "name": "getApproved",
      "outputs": [
        {
          "internalType": "address",
          "name": "",
          "type": "address"
        }
      ],
      "stateMutability": "view",
      "type": "function"
    },
    {
      "inputs": [
        {
          "internalType": "uint16",
          "name": "_version",
          "type": "uint16"
        },
        {
          "internalType": "uint16",
          "name": "_chainId",
          "type": "uint16"
        },
        {
          "internalType": "address",
          "name": "",
          "type": "address"
        },
        {
          "internalType": "uint256",
          "name": "_configType",
          "type": "uint256"
        }
      ],
      "name": "getConfig",
      "outputs": [
        {
          "internalType": "bytes",
          "name": "",
          "type": "bytes"
        }
      ],
      "stateMutability": "view",
      "type": "function"
    },
    {
      "inputs": [
        {
          "internalType": "bytes",
          "name": "_adapterParams",
          "type": "bytes"
        }
      ],
      "name": "getGasLimit",
      "outputs": [
        {
          "internalType": "uint256",
          "name": "gasLimit",
          "type": "uint256"
        }
      ],
      "stateMutability": "pure",
      "type": "function"
    },
    {
      "inputs": [
        {
          "internalType": "uint256",
          "name": "blockNumber",
          "type": "uint256"
        }
      ],
      "name": "getPastTotalSupply",
      "outputs": [
        {
          "internalType": "uint256",
          "name": "",
          "type": "uint256"
        }
      ],
      "stateMutability": "view",
      "type": "function"
    },
    {
      "inputs": [
        {
          "internalType": "address",
          "name": "account",
          "type": "address"
        },
        {
          "internalType": "uint256",
          "name": "blockNumber",
          "type": "uint256"
        }
      ],
      "name": "getPastVotes",
      "outputs": [
        {
          "internalType": "uint256",
          "name": "",
          "type": "uint256"
        }
      ],
      "stateMutability": "view",
      "type": "function"
    },
    {
      "inputs": [
        {
          "internalType": "bytes32",
          "name": "role",
          "type": "bytes32"
        }
      ],
      "name": "getRoleAdmin",
      "outputs": [
        {
          "internalType": "bytes32",
          "name": "",
          "type": "bytes32"
        }
      ],
      "stateMutability": "view",
      "type": "function"
    },
    {
      "inputs": [
        {
          "internalType": "address",
          "name": "account",
          "type": "address"
        }
      ],
      "name": "getVotes",
      "outputs": [
        {
          "internalType": "uint256",
          "name": "",
          "type": "uint256"
        }
      ],
      "stateMutability": "view",
      "type": "function"
    },
    {
      "inputs": [
        {
          "internalType": "bytes32",
          "name": "role",
          "type": "bytes32"
        },
        {
          "internalType": "address",
          "name": "account",
          "type": "address"
        }
      ],
      "name": "grantRole",
      "outputs": [],
      "stateMutability": "nonpayable",
      "type": "function"
    },
    {
      "inputs": [
        {
          "internalType": "bytes32",
          "name": "role",
          "type": "bytes32"
        },
        {
          "internalType": "address",
          "name": "account",
          "type": "address"
        }
      ],
      "name": "hasRole",
      "outputs": [
        {
          "internalType": "bool",
          "name": "",
          "type": "bool"
        }
      ],
      "stateMutability": "view",
      "type": "function"
    },
    {
      "inputs": [
        {
          "internalType": "string",
          "name": "_name",
          "type": "string"
        },
        {
          "internalType": "string",
          "name": "_symbol",
          "type": "string"
        },
        {
          "internalType": "address",
          "name": "_lzEndpoint",
          "type": "address"
        },
        {
          "internalType": "address",
          "name": "sender",
          "type": "address"
        },
        {
          "internalType": "uint16[]",
          "name": "remoteChainIds",
          "type": "uint16[]"
        },
        {
          "internalType": "address",
          "name": "_streamer",
          "type": "address"
        },
        {
          "internalType": "uint16",
          "name": "_streamChainId",
          "type": "uint16"
        },
        {
          "internalType": "string",
          "name": "_uri",
          "type": "string"
        }
      ],
      "name": "initialize",
      "outputs": [],
      "stateMutability": "nonpayable",
      "type": "function"
    },
    {
      "inputs": [
        {
          "internalType": "address",
          "name": "owner",
          "type": "address"
        },
        {
          "internalType": "address",
          "name": "operator",
          "type": "address"
        }
      ],
      "name": "isApprovedForAll",
      "outputs": [
        {
          "internalType": "bool",
          "name": "",
          "type": "bool"
        }
      ],
      "stateMutability": "view",
      "type": "function"
    },
    {
      "inputs": [
        {
          "internalType": "uint16",
          "name": "_srcChainId",
          "type": "uint16"
        },
        {
          "internalType": "bytes",
          "name": "_srcAddress",
          "type": "bytes"
        }
      ],
      "name": "isTrustedRemote",
      "outputs": [
        {
          "internalType": "bool",
          "name": "",
          "type": "bool"
        }
      ],
      "stateMutability": "view",
      "type": "function"
    },
    {
      "inputs": [],
      "name": "lzEndpoint",
      "outputs": [
        {
          "internalType": "contract ILayerZeroEndpointUpgradeable",
          "name": "",
          "type": "address"
        }
      ],
      "stateMutability": "view",
      "type": "function"
    },
    {
      "inputs": [
        {
          "internalType": "uint16",
          "name": "_srcChainId",
          "type": "uint16"
        },
        {
          "internalType": "bytes",
          "name": "_srcAddress",
          "type": "bytes"
        },
        {
          "internalType": "uint64",
          "name": "_nonce",
          "type": "uint64"
        },
        {
          "internalType": "bytes",
          "name": "_payload",
          "type": "bytes"
        }
      ],
      "name": "lzReceive",
      "outputs": [],
      "stateMutability": "nonpayable",
      "type": "function"
    },
    {
      "inputs": [
        {
          "internalType": "uint16",
          "name": "",
          "type": "uint16"
        },
        {
          "internalType": "uint256",
          "name": "",
          "type": "uint256"
        }
      ],
      "name": "minDstGasLookup",
      "outputs": [
        {
          "internalType": "uint256",
          "name": "",
          "type": "uint256"
        }
      ],
      "stateMutability": "view",
      "type": "function"
    },
    {
      "inputs": [
        {
          "internalType": "address",
          "name": "to",
          "type": "address"
        },
        {
          "internalType": "uint256",
          "name": "categoryId",
          "type": "uint256"
        }
      ],
      "name": "mint",
      "outputs": [],
      "stateMutability": "payable",
      "type": "function"
    },
    {
      "inputs": [],
      "name": "name",
      "outputs": [
        {
          "internalType": "string",
          "name": "",
          "type": "string"
        }
      ],
      "stateMutability": "view",
      "type": "function"
    },
    {
      "inputs": [
        {
          "internalType": "uint16",
          "name": "_srcChainId",
          "type": "uint16"
        },
        {
          "internalType": "bytes",
          "name": "_srcAddress",
          "type": "bytes"
        },
        {
          "internalType": "uint64",
          "name": "_nonce",
          "type": "uint64"
        },
        {
          "internalType": "bytes",
          "name": "_payload",
          "type": "bytes"
        }
      ],
      "name": "nonblockingLzReceive",
      "outputs": [],
      "stateMutability": "nonpayable",
      "type": "function"
    },
    {
      "inputs": [
        {
          "internalType": "address",
          "name": "owner",
          "type": "address"
        }
      ],
      "name": "nonces",
      "outputs": [
        {
          "internalType": "uint256",
          "name": "",
          "type": "uint256"
        }
      ],
      "stateMutability": "view",
      "type": "function"
    },
    {
      "inputs": [],
      "name": "owner",
      "outputs": [
        {
          "internalType": "address",
          "name": "",
          "type": "address"
        }
      ],
      "stateMutability": "view",
      "type": "function"
    },
    {
      "inputs": [
        {
          "internalType": "uint256",
          "name": "tokenId",
          "type": "uint256"
        }
      ],
      "name": "ownerOf",
      "outputs": [
        {
          "internalType": "address",
          "name": "",
          "type": "address"
        }
      ],
      "stateMutability": "view",
      "type": "function"
    },
    {
      "inputs": [],
      "name": "renounceOwnership",
      "outputs": [],
      "stateMutability": "nonpayable",
      "type": "function"
    },
    {
      "inputs": [
        {
          "internalType": "bytes32",
          "name": "role",
          "type": "bytes32"
        },
        {
          "internalType": "address",
          "name": "account",
          "type": "address"
        }
      ],
      "name": "renounceRole",
      "outputs": [],
      "stateMutability": "nonpayable",
      "type": "function"
    },
    {
      "inputs": [
        {
          "internalType": "uint16",
          "name": "_srcChainId",
          "type": "uint16"
        },
        {
          "internalType": "bytes",
          "name": "_srcAddress",
          "type": "bytes"
        },
        {
          "internalType": "uint64",
          "name": "_nonce",
          "type": "uint64"
        },
        {
          "internalType": "bytes",
          "name": "_payload",
          "type": "bytes"
        }
      ],
      "name": "retryMessage",
      "outputs": [],
      "stateMutability": "payable",
      "type": "function"
    },
    {
      "inputs": [
        {
          "internalType": "bytes32",
          "name": "role",
          "type": "bytes32"
        },
        {
          "internalType": "address",
          "name": "account",
          "type": "address"
        }
      ],
      "name": "revokeRole",
      "outputs": [],
      "stateMutability": "nonpayable",
      "type": "function"
    },
    {
      "inputs": [
        {
          "internalType": "address",
          "name": "from",
          "type": "address"
        },
        {
          "internalType": "address",
          "name": "to",
          "type": "address"
        },
        {
          "internalType": "uint256",
          "name": "tokenId",
          "type": "uint256"
        }
      ],
      "name": "safeTransferFrom",
      "outputs": [],
      "stateMutability": "nonpayable",
      "type": "function"
    },
    {
      "inputs": [
        {
          "internalType": "address",
          "name": "from",
          "type": "address"
        },
        {
          "internalType": "address",
          "name": "to",
          "type": "address"
        },
        {
          "internalType": "uint256",
          "name": "tokenId",
          "type": "uint256"
        },
        {
          "internalType": "bytes",
          "name": "data",
          "type": "bytes"
        }
      ],
      "name": "safeTransferFrom",
      "outputs": [],
      "stateMutability": "nonpayable",
      "type": "function"
    },
    {
      "inputs": [
        {
          "internalType": "address",
          "name": "_from",
          "type": "address"
        },
        {
          "internalType": "uint16",
          "name": "_dstChainId",
          "type": "uint16"
        },
        {
          "internalType": "bytes",
          "name": "_toAddress",
          "type": "bytes"
        },
        {
          "internalType": "uint256",
          "name": "_tokenId",
          "type": "uint256"
        },
        {
          "internalType": "address payable",
          "name": "_refundAddress",
          "type": "address"
        },
        {
          "internalType": "address",
          "name": "_zroPaymentAddress",
          "type": "address"
        },
        {
          "internalType": "bytes",
          "name": "_adapterParams",
          "type": "bytes"
        }
      ],
      "name": "sendFrom",
      "outputs": [],
      "stateMutability": "payable",
      "type": "function"
    },
    {
      "inputs": [
        {
          "internalType": "address",
          "name": "operator",
          "type": "address"
        },
        {
          "internalType": "bool",
          "name": "approved",
          "type": "bool"
        }
      ],
      "name": "setApprovalForAll",
      "outputs": [],
      "stateMutability": "nonpayable",
      "type": "function"
    },
    {
      "inputs": [
        {
          "internalType": "string",
          "name": "_uri",
          "type": "string"
        }
      ],
      "name": "setBaseURI",
      "outputs": [],
      "stateMutability": "nonpayable",
      "type": "function"
    },
    {
      "inputs": [
        {
          "internalType": "uint16",
          "name": "_version",
          "type": "uint16"
        },
        {
          "internalType": "uint16",
          "name": "_chainId",
          "type": "uint16"
        },
        {
          "internalType": "uint256",
          "name": "_configType",
          "type": "uint256"
        },
        {
          "internalType": "bytes",
          "name": "_config",
          "type": "bytes"
        }
      ],
      "name": "setConfig",
      "outputs": [],
      "stateMutability": "nonpayable",
      "type": "function"
    },
    {
      "inputs": [
        {
          "internalType": "uint16",
          "name": "_dstChainId",
          "type": "uint16"
        },
        {
          "internalType": "uint256",
          "name": "_type",
          "type": "uint256"
        },
        {
          "internalType": "uint256",
          "name": "_dstGasAmount",
          "type": "uint256"
        }
      ],
      "name": "setMinDstGasLookup",
      "outputs": [],
      "stateMutability": "nonpayable",
      "type": "function"
    },
    {
      "inputs": [
        {
          "internalType": "uint16",
          "name": "_version",
          "type": "uint16"
        }
      ],
      "name": "setReceiveVersion",
      "outputs": [],
      "stateMutability": "nonpayable",
      "type": "function"
    },
    {
      "inputs": [
        {
          "internalType": "uint16",
          "name": "_version",
          "type": "uint16"
        }
      ],
      "name": "setSendVersion",
      "outputs": [],
      "stateMutability": "nonpayable",
      "type": "function"
    },
    {
      "inputs": [
        {
          "internalType": "uint16",
          "name": "_srcChainId",
          "type": "uint16"
        },
        {
          "internalType": "bytes",
          "name": "_srcAddress",
          "type": "bytes"
        }
      ],
      "name": "setTrustedRemote",
      "outputs": [],
      "stateMutability": "nonpayable",
      "type": "function"
    },
    {
      "inputs": [
        {
          "internalType": "bool",
          "name": "_useCustomAdapterParams",
          "type": "bool"
        }
      ],
      "name": "setUseCustomAdapterParams",
      "outputs": [],
      "stateMutability": "nonpayable",
      "type": "function"
    },
    {
      "inputs": [
        {
          "internalType": "bytes4",
          "name": "interfaceId",
          "type": "bytes4"
        }
      ],
      "name": "supportsInterface",
      "outputs": [
        {
          "internalType": "bool",
          "name": "",
          "type": "bool"
        }
      ],
      "stateMutability": "view",
      "type": "function"
    },
    {
      "inputs": [],
      "name": "symbol",
      "outputs": [
        {
          "internalType": "string",
          "name": "",
          "type": "string"
        }
      ],
      "stateMutability": "view",
      "type": "function"
    },
    {
      "inputs": [
        {
          "internalType": "uint256",
          "name": "tokenId",
          "type": "uint256"
        }
      ],
      "name": "tokenURI",
      "outputs": [
        {
          "internalType": "string",
          "name": "",
          "type": "string"
        }
      ],
      "stateMutability": "view",
      "type": "function"
    },
    {
      "inputs": [
        {
          "internalType": "address",
          "name": "from",
          "type": "address"
        },
        {
          "internalType": "address",
          "name": "to",
          "type": "address"
        },
        {
          "internalType": "uint256",
          "name": "tokenId",
          "type": "uint256"
        }
      ],
      "name": "transferFrom",
      "outputs": [],
      "stateMutability": "nonpayable",
      "type": "function"
    },
    {
      "inputs": [
        {
          "internalType": "address",
          "name": "newOwner",
          "type": "address"
        }
      ],
      "name": "transferOwnership",
      "outputs": [],
      "stateMutability": "nonpayable",
      "type": "function"
    },
    {
      "inputs": [
        {
          "internalType": "uint16",
          "name": "",
          "type": "uint16"
        }
      ],
      "name": "trustedRemoteLookup",
      "outputs": [
        {
          "internalType": "bytes",
          "name": "",
          "type": "bytes"
        }
      ],
      "stateMutability": "view",
      "type": "function"
    },
    {
      "inputs": [],
      "name": "useCustomAdapterParams",
      "outputs": [
        {
          "internalType": "bool",
          "name": "",
          "type": "bool"
        }
      ],
      "stateMutability": "view",
      "type": "function"
    },
    {
      "inputs": [],
      "name": "withdraw",
      "outputs": [],
      "stateMutability": "nonpayable",
      "type": "function"
    }
  ],
  "bytecode": "0x608060405234801561001057600080fd5b50615f5c80620000216000396000f3fe6080604052600436106103b75760003560e01c80637533d788116101f2578063c3cda5201161010d578063d5f97ff1116100a0578063eb8d72b71161006f578063eb8d72b714610bb7578063ed629c5c14610bd7578063f2fde38b14610bf0578063f5ecbdbc14610c1057600080fd5b8063d5f97ff114610b25578063e8a3d48514610b38578063e985e9c514610b4d578063eab45d9c14610b9757600080fd5b8063d1deba1f116100dc578063d1deba1f14610a9e578063d2b40d9114610ab1578063d539139314610ad1578063d547741f14610b0557600080fd5b8063c3cda52014610a0d578063c6cdbe5e14610a2d578063c87b56dd14610a5e578063cbed8b9c14610a7e57600080fd5b80639ab24eb011610185578063a2ca14ec11610154578063a2ca14ec14610996578063af3fb21c146109b8578063b353aaa7146109cd578063b88d4fde146109ed57600080fd5b80639ab24eb0146109365780639b57db5f14610956578063a217fddf146106b6578063a22cb4651461097657600080fd5b80638da5cb5b116101c15780638da5cb5b1461089c5780638e539e8c146108ba57806391d14854146108da57806395d89b411461092157600080fd5b80637533d7881461081c5780637dd8aa521461083c5780637ecebe001461085c5780638bd88ab01461087c57600080fd5b80633ccfd60b116102e257806355f804b3116102755780636352211e116102445780636352211e146107a757806366ad5c8a146107c757806370a08231146107e7578063715018a61461080757600080fd5b806355f804b3146106de578063587cde1e146106fe5780635b8c41e6146107385780635c19a95c1461078757600080fd5b806342966c68116102b157806342966c681461067657806342d65a8d1461069657806344770515146106b657806351905636146106cb57600080fd5b80633ccfd60b1461060e5780633d8b38f61461062357806340c10f191461064357806342842e0e1461065657600080fd5b806310ddb1371161035a5780632f2ff15d116103295780632f2ff15d146105995780633644e515146105b957806336568abe146105ce5780633a46b1a8146105ee57600080fd5b806310ddb137146104f357806323b872dd14610513578063248a9ca3146105335780632a205e3d1461056457600080fd5b80630781086711610396578063078108671461043557806307e0db171461047b578063081812fc1461049b578063095ea7b3146104d357600080fd5b80621d3567146103bc57806301ffc9a7146103de57806306fdde0314610413575b600080fd5b3480156103c857600080fd5b506103dc6103d7366004614d48565b610c30565b005b3480156103ea57600080fd5b506103fe6103f9366004614de7565b610dd9565b60405190151581526020015b60405180910390f35b34801561041f57600080fd5b50610428610dea565b60405161040a9190614e5c565b34801561044157600080fd5b5061046d610450366004614e6f565b606760209081526000928352604080842090915290825290205481565b60405190815260200161040a565b34801561048757600080fd5b506103dc610496366004614e99565b610e7d565b3480156104a757600080fd5b506104bb6104b6366004614eb4565b610efc565b6040516001600160a01b03909116815260200161040a565b3480156104df57600080fd5b506103dc6104ee366004614eed565b610f24565b3480156104ff57600080fd5b506103dc61050e366004614e99565b611055565b34801561051f57600080fd5b506103dc61052e366004614f0b565b6110aa565b34801561053f57600080fd5b5061046d61054e366004614eb4565b6000908152610260602052604090206001015490565b34801561057057600080fd5b5061058461057f366004614f5a565b611122565b6040805192835260208301919091520161040a565b3480156105a557600080fd5b506103dc6105b4366004614fed565b6111e9565b3480156105c557600080fd5b5061046d61120f565b3480156105da57600080fd5b506103dc6105e9366004614fed565b61121e565b3480156105fa57600080fd5b5061046d610609366004614eed565b6112aa565b34801561061a57600080fd5b506103dc6112d4565b34801561062f57600080fd5b506103fe61063e36600461505f565b61130b565b6103dc610651366004614eed565b6113d7565b34801561066257600080fd5b506103dc610671366004614f0b565b611512565b34801561068257600080fd5b506103dc610691366004614eb4565b61152d565b3480156106a257600080fd5b506103dc6106b136600461505f565b6115a4565b3480156106c257600080fd5b5061046d600081565b6103dc6106d93660046150b2565b611630565b3480156106ea57600080fd5b506103dc6106f936600461516c565b61163f565b34801561070a57600080fd5b506104bb6107193660046151ae565b6001600160a01b0390811660009081526101fc60205260409020541690565b34801561074457600080fd5b5061046d6107533660046151cb565b609a602090815260009384526040808520845180860184018051928152908401958401959095209452929052825290205481565b34801561079357600080fd5b506103dc6107a23660046151ae565b611658565b3480156107b357600080fd5b506104bb6107c2366004614eb4565b611663565b3480156107d357600080fd5b506103dc6107e2366004614d48565b6116c9565b3480156107f357600080fd5b5061046d6108023660046151ae565b61174a565b34801561081357600080fd5b506103dc6117e5565b34801561082857600080fd5b50610428610837366004614e99565b6117f9565b34801561084857600080fd5b506103dc61085736600461522d565b611893565b34801561086857600080fd5b5061046d6108773660046151ae565b6118fc565b34801561088857600080fd5b506103dc610897366004615361565b61191b565b3480156108a857600080fd5b506033546001600160a01b03166104bb565b3480156108c657600080fd5b5061046d6108d5366004614eb4565b611b6a565b3480156108e657600080fd5b506103fe6108f5366004614fed565b6000918252610260602090815260408084206001600160a01b0393909316845291905290205460ff1690565b34801561092d57600080fd5b50610428611bc7565b34801561094257600080fd5b5061046d6109513660046151ae565b611bd7565b34801561096257600080fd5b506103dc61097136600461545a565b611c08565b34801561098257600080fd5b506103dc61099136600461548d565b611cc4565b3480156109a257600080fd5b5061046d6109b13660046154bb565b6022015190565b3480156109c457600080fd5b5061046d600181565b3480156109d957600080fd5b506065546104bb906001600160a01b031681565b3480156109f957600080fd5b506103dc610a083660046154f0565b611ccf565b348015610a1957600080fd5b506103dc610a28366004615550565b611d47565b348015610a3957600080fd5b50610a4d610a48366004614eb4565b611e74565b60405161040a9594939291906155b2565b348015610a6a57600080fd5b50610428610a79366004614eb4565b611f32565b348015610a8a57600080fd5b506103dc610a993660046155e9565b611f98565b6103dc610aac366004614d48565b61202a565b348015610abd57600080fd5b50610584610acc366004615658565b6121b4565b348015610add57600080fd5b5061046d7f9f2df0fed2c77648de5860a4cc508cd0818c85b8b8a1ab4ceeef8d981c8956a681565b348015610b1157600080fd5b506103dc610b20366004614fed565b612294565b6103dc610b33366004614e6f565b6122ba565b348015610b4457600080fd5b50610428612329565b348015610b5957600080fd5b506103fe610b683660046156a7565b6001600160a01b0391821660009081526101376020908152604080832093909416825291909152205460ff1690565b348015610ba357600080fd5b506103dc610bb23660046156d5565b612352565b348015610bc357600080fd5b506103dc610bd236600461505f565b6123a1565b348015610be357600080fd5b5060ff80546103fe911681565b348015610bfc57600080fd5b506103dc610c0b3660046151ae565b6123fb565b348015610c1c57600080fd5b50610428610c2b3660046156f2565b612488565b6065546001600160a01b0316336001600160a01b031614610c985760405162461bcd60e51b815260206004820152601e60248201527f4c7a4170703a20696e76616c696420656e64706f696e742063616c6c6572000060448201526064015b60405180910390fd5b61ffff841660009081526066602052604081208054610cb69061571f565b80601f0160208091040260200160405190810160405280929190818152602001828054610ce29061571f565b8015610d2f5780601f10610d0457610100808354040283529160200191610d2f565b820191906000526020600020905b815481529060010190602001808311610d1257829003601f168201915b5050505050905080518451148015610d54575080805190602001208480519060200120145b610dc65760405162461bcd60e51b815260206004820152602660248201527f4c7a4170703a20696e76616c696420736f757263652073656e64696e6720636f60448201527f6e747261637400000000000000000000000000000000000000000000000000006064820152608401610c8f565b610dd285858585612536565b5050505050565b6000610de482612641565b92915050565b60606101328054610dfa9061571f565b80601f0160208091040260200160405190810160405280929190818152602001828054610e269061571f565b8015610e735780601f10610e4857610100808354040283529160200191610e73565b820191906000526020600020905b815481529060010190602001808311610e5657829003601f168201915b5050505050905090565b610e8561267f565b6065546040517f07e0db1700000000000000000000000000000000000000000000000000000000815261ffff831660048201526001600160a01b03909116906307e0db17906024015b600060405180830381600087803b158015610ee857600080fd5b505af1158015610dd2573d6000803e3d6000fd5b6000610f07826126d9565b50600090815261013660205260409020546001600160a01b031690565b6000610f2f82611663565b9050806001600160a01b0316836001600160a01b031603610fb85760405162461bcd60e51b815260206004820152602160248201527f4552433732313a20617070726f76616c20746f2063757272656e74206f776e6560448201527f72000000000000000000000000000000000000000000000000000000000000006064820152608401610c8f565b336001600160a01b0382161480610fd45750610fd48133610b68565b6110465760405162461bcd60e51b815260206004820152603d60248201527f4552433732313a20617070726f76652063616c6c6572206973206e6f7420746f60448201527f6b656e206f776e6572206f7220617070726f76656420666f7220616c6c0000006064820152608401610c8f565b611050838361273e565b505050565b61105d61267f565b6065546040517f10ddb13700000000000000000000000000000000000000000000000000000000815261ffff831660048201526001600160a01b03909116906310ddb13790602401610ece565b6110b5335b826127ad565b6111175760405162461bcd60e51b815260206004820152602d60248201527f4552433732313a2063616c6c6572206973206e6f7420746f6b656e206f776e6560448201526c1c881bdc88185c1c1c9bdd9959609a1b6064820152608401610c8f565b61105083838361282c565b6000806000868660405160200161113a929190615753565b60408051601f19818403018152908290526065547f40a7bb100000000000000000000000000000000000000000000000000000000083529092506001600160a01b0316906340a7bb109061119a908b90309086908b908b90600401615775565b6040805180830381865afa1580156111b6573d6000803e3d6000fd5b505050506040513d601f19601f820116820180604052508101906111da91906157c7565b92509250509550959350505050565b6000828152610260602052604090206001015461120581612a3d565b6110508383612a47565b6000611219612aeb565b905090565b6001600160a01b038116331461129c5760405162461bcd60e51b815260206004820152602f60248201527f416363657373436f6e74726f6c3a2063616e206f6e6c792072656e6f756e636560448201527f20726f6c657320666f722073656c6600000000000000000000000000000000006064820152608401610c8f565b6112a68282612b68565b5050565b6001600160a01b03821660009081526101fd602052604081206112cd9083612bed565b9392505050565b60006112df81612a3d565b60405133904780156108fc02916000818181858888f193505050501580156112a6573d6000803e3d6000fd5b61ffff83166000908152606660205260408120805482919061132c9061571f565b80601f01602080910402602001604051908101604052809291908181526020018280546113589061571f565b80156113a55780601f1061137a576101008083540402835291602001916113a5565b820191906000526020600020905b81548152906001019060200180831161138857829003601f168201915b5050505050905083836040516113bc9291906157eb565b60405180910390208180519060200120149150509392505050565b60008181526102946020526040902060028101541580159061140157508060020154816001015411155b61144d5760405162461bcd60e51b815260206004820152600260248201527f21430000000000000000000000000000000000000000000000000000000000006044820152606401610c8f565b3360009081527f48e7bcf2f578c572898238e08defac76da16d6b9c52f7c64ee7f7adb5436c5bf602052604090205460ff168061149d5750600381015460ff16801561149d575080600401543410155b6114e95760405162461bcd60e51b815260206004820152600260248201527f21520000000000000000000000000000000000000000000000000000000000006044820152606401610c8f565b60018101805490819060006114fd83615811565b919050555061150c8482612d09565b50505050565b61105083838360405180602001604052806000815250611ccf565b611536336110af565b6115985760405162461bcd60e51b815260206004820152602d60248201527f4552433732313a2063616c6c6572206973206e6f7420746f6b656e206f776e6560448201526c1c881bdc88185c1c1c9bdd9959609a1b6064820152608401610c8f565b6115a181612d23565b50565b6115ac61267f565b6065546040517f42d65a8d0000000000000000000000000000000000000000000000000000000081526001600160a01b03909116906342d65a8d906115f990869086908690600401615853565b600060405180830381600087803b15801561161357600080fd5b505af1158015611627573d6000803e3d6000fd5b50505050505050565b61162787878787878787612d2c565b600061164a81612a3d565b61029261150c8385836158bf565b336112a68183612e78565b600081815261013460205260408120546001600160a01b031680610de45760405162461bcd60e51b815260206004820152601860248201527f4552433732313a20696e76616c696420746f6b656e20494400000000000000006044820152606401610c8f565b33301461173e5760405162461bcd60e51b815260206004820152602660248201527f4e6f6e626c6f636b696e674c7a4170703a2063616c6c6572206d75737420626560448201527f204c7a41707000000000000000000000000000000000000000000000000000006064820152608401610c8f565b61150c84848484612eeb565b60006001600160a01b0382166117c85760405162461bcd60e51b815260206004820152602960248201527f4552433732313a2061646472657373207a65726f206973206e6f74206120766160448201527f6c6964206f776e657200000000000000000000000000000000000000000000006064820152608401610c8f565b506001600160a01b03166000908152610135602052604090205490565b6117ed61267f565b6117f76000613040565b565b606660205260009081526040902080546118129061571f565b80601f016020809104026020016040519081016040528092919081815260200182805461183e9061571f565b801561188b5780601f106118605761010080835404028352916020019161188b565b820191906000526020600020905b81548152906001019060200180831161186e57829003601f168201915b505050505081565b600061189e81612a3d565b600083815261029460205260409020825183919081906118be908261597f565b506020820151600182015560408201516002820155606082015160038201805460ff1916911515919091179055608090910151600490910155505050565b6001600160a01b03811660009081526101ff6020526040812054610de4565b600054610100900460ff161580801561193b5750600054600160ff909116105b806119555750303b158015611955575060005460ff166001145b6119c75760405162461bcd60e51b815260206004820152602e60248201527f496e697469616c697a61626c653a20636f6e747261637420697320616c72656160448201527f647920696e697469616c697a65640000000000000000000000000000000000006064820152608401610c8f565b6000805460ff1916600117905580156119ea576000805461ff0019166101001790555b6119f58a8a8a613092565b610292611a038385836158bf565b50610293805461ffff8616600160a01b027fffffffffffffffffffff000000000000000000000000000000000000000000009091166001600160a01b03881617179055611a4f87613040565b611a5a600088612a47565b611a847f9f2df0fed2c77648de5860a4cc508cd0818c85b8b8a1ab4ceeef8d981c8956a688612a47565b60005b8651811015611b17576040516bffffffffffffffffffffffff193060601b1660208201819052603482015260480160405160208183030381529060405260666000898481518110611ada57611ada615a3f565b602002602001015161ffff1661ffff1681526020019081526020016000209081611b04919061597f565b5080611b0f81615811565b915050611a87565b508015611b5e576000805461ff0019169055604051600181527f7f26b83ff96e1f2b6a682f133852f6798a09c465da95921460cefb38474024989060200160405180910390a15b50505050505050505050565b6000438210611bbb5760405162461bcd60e51b815260206004820152601a60248201527f566f7465733a20626c6f636b206e6f7420796574206d696e65640000000000006044820152606401610c8f565b610de46101fe83612bed565b60606101338054610dfa9061571f565b6001600160a01b03811660009081526101fd60205260408120611bf990613110565b6001600160e01b031692915050565b611c1061267f565b60008111611c605760405162461bcd60e51b815260206004820152601c60248201527f4c7a4170703a20696e76616c6964205f647374476173416d6f756e74000000006044820152606401610c8f565b61ffff831660008181526067602090815260408083208684528252918290208490558151928352820184905281018290527f15ceea62cfa597b29eb911525932c57500d97da953485d24260680ae56903b68906060015b60405180910390a1505050565b6112a633838361314a565b611cd933836127ad565b611d3b5760405162461bcd60e51b815260206004820152602d60248201527f4552433732313a2063616c6c6572206973206e6f7420746f6b656e206f776e6560448201526c1c881bdc88185c1c1c9bdd9959609a1b6064820152608401610c8f565b61150c84848484613219565b83421115611d975760405162461bcd60e51b815260206004820152601860248201527f566f7465733a207369676e6174757265206578706972656400000000000000006044820152606401610c8f565b604080517fe48329057bfd03d55e49b547132e39cffd9c1820ad7b9d4c5307691425d15adf60208201526001600160a01b038816918101919091526060810186905260808101859052600090611e1190611e099060a00160405160208183030381529060405280519060200120613297565b858585613300565b9050611e1c81613328565b8614611e6a5760405162461bcd60e51b815260206004820152601460248201527f566f7465733a20696e76616c6964206e6f6e63650000000000000000000000006044820152606401610c8f565b6116278188612e78565b61029460205260009081526040902080548190611e909061571f565b80601f0160208091040260200160405190810160405280929190818152602001828054611ebc9061571f565b8015611f095780601f10611ede57610100808354040283529160200191611f09565b820191906000526020600020905b815481529060010190602001808311611eec57829003601f168201915b5050506001840154600285015460038601546004909601549495919490935060ff909116915085565b6060611f3d826126d9565b6000611f47613351565b90506000815111611f6757604051806020016040528060008152506112cd565b80611f7184613361565b604051602001611f82929190615a55565b6040516020818303038152906040529392505050565b611fa061267f565b6065546040517fcbed8b9c0000000000000000000000000000000000000000000000000000000081526001600160a01b039091169063cbed8b9c90611ff19088908890889088908890600401615a84565b600060405180830381600087803b15801561200b57600080fd5b505af115801561201f573d6000803e3d6000fd5b505050505050505050565b61ffff84166000908152609a6020526040808220905161204b908690615ab2565b908152604080516020928190038301902067ffffffffffffffff8616600090815292529020549050806120e65760405162461bcd60e51b815260206004820152602360248201527f4e6f6e626c6f636b696e674c7a4170703a206e6f2073746f726564206d65737360448201527f61676500000000000000000000000000000000000000000000000000000000006064820152608401610c8f565b8151602083012081146121615760405162461bcd60e51b815260206004820152602160248201527f4e6f6e626c6f636b696e674c7a4170703a20696e76616c6964207061796c6f6160448201527f64000000000000000000000000000000000000000000000000000000000000006064820152608401610c8f565b61ffff85166000908152609a60205260408082209051612182908790615ab2565b908152604080516020928190038301902067ffffffffffffffff871660009081529252902055610dd285858585612eeb565b6065546040516bffffffffffffffffffffffff19606085901b16602082015260009182916001600160a01b03909116906340a7bb109088903090899060340160408051601f198184030181529082905261221692918a90600090602001615ace565b60405160208183030381529060405260006040518563ffffffff1660e01b81526004016122469493929190615b08565b6040805180830381865afa158015612262573d6000803e3d6000fd5b505050506040513d601f19601f8201168201806040525081019061228691906157c7565b915091505b94509492505050565b600082815261026060205260409020600101546122b081612a3d565b6110508383612b68565b336122c482611663565b6001600160a01b0316146122d757600080fd5b6112a6338333604051602001612305919060609190911b6bffffffffffffffffffffffff1916815260140190565b60408051601f19818403018152602083019091526000808352909186913391612d2c565b606061029260405160200161233e9190615b54565b604051602081830303815290604052905090565b61235a61267f565b60ff805460ff19168215159081179091556040519081527f1584ad594a70cbe1e6515592e1272a987d922b097ead875069cebe8b40c004a49060200160405180910390a150565b6123a961267f565b61ffff831660009081526066602052604090206123c78284836158bf565b507ffa41487ad5d6728f0b19276fa1eddc16558578f5109fc39d2dc33c3230470dab838383604051611cb793929190615853565b61240361267f565b6001600160a01b03811661247f5760405162461bcd60e51b815260206004820152602660248201527f4f776e61626c653a206e6577206f776e657220697320746865207a65726f206160448201527f64647265737300000000000000000000000000000000000000000000000000006064820152608401610c8f565b6115a181613040565b6065546040517ff5ecbdbc00000000000000000000000000000000000000000000000000000000815261ffff808716600483015285166024820152306044820152606481018390526060916001600160a01b03169063f5ecbdbc90608401600060405180830381865afa158015612503573d6000803e3d6000fd5b505050506040513d6000823e601f3d908101601f1916820160405261252b9190810190615c34565b90505b949350505050565b6040517f66ad5c8a00000000000000000000000000000000000000000000000000000000815230906366ad5c8a90612578908790879087908790600401615c69565b600060405180830381600087803b15801561259257600080fd5b505af19250505080156125a3575060015b61150c578080519060200120609a60008661ffff1661ffff168152602001908152602001600020846040516125d89190615ab2565b90815260408051918290036020908101832067ffffffffffffffff87166000908152915220919091557fe6f254030bcb01ffd20558175c13fcaed6d1520be7becee4c961b65f79243b0d90612634908690869086908690615c69565b60405180910390a161150c565b60006001600160e01b031982167f7965db0b000000000000000000000000000000000000000000000000000000001480610de45750610de482613401565b6033546001600160a01b031633146117f75760405162461bcd60e51b815260206004820181905260248201527f4f776e61626c653a2063616c6c6572206973206e6f7420746865206f776e65726044820152606401610c8f565b600081815261013460205260409020546001600160a01b03166115a15760405162461bcd60e51b815260206004820152601860248201527f4552433732313a20696e76616c696420746f6b656e20494400000000000000006044820152606401610c8f565b60008181526101366020526040902080546001600160a01b0319166001600160a01b038416908117909155819061277482611663565b6001600160a01b03167f8c5be1e5ebec7d5bd14f71427d1e84f3dd0314c0f7b2291e5b200ac8c7c3b92560405160405180910390a45050565b6000806127b983611663565b9050806001600160a01b0316846001600160a01b0316148061280157506001600160a01b038082166000908152610137602090815260408083209388168352929052205460ff165b8061252e5750836001600160a01b031661281a84610efc565b6001600160a01b031614949350505050565b826001600160a01b031661283f82611663565b6001600160a01b0316146128a35760405162461bcd60e51b815260206004820152602560248201527f4552433732313a207472616e736665722066726f6d20696e636f72726563742060448201526437bbb732b960d91b6064820152608401610c8f565b6001600160a01b03821661291e5760405162461bcd60e51b8152602060048201526024808201527f4552433732313a207472616e7366657220746f20746865207a65726f2061646460448201527f72657373000000000000000000000000000000000000000000000000000000006064820152608401610c8f565b61292b838383600161341e565b826001600160a01b031661293e82611663565b6001600160a01b0316146129a25760405162461bcd60e51b815260206004820152602560248201527f4552433732313a207472616e736665722066726f6d20696e636f72726563742060448201526437bbb732b960d91b6064820152608401610c8f565b60008181526101366020908152604080832080546001600160a01b03199081169091556001600160a01b03878116808652610135855283862080546000190190559087168086528386208054600101905586865261013490945282852080549092168417909155905184937fddf252ad1be2c89b69c2b068fc378daa952ba7f163c4a11628f55a4df523b3ef91a4611050838383600161352b565b6115a18133613537565b6000828152610260602090815260408083206001600160a01b038516845290915290205460ff166112a6576000828152610260602090815260408083206001600160a01b03851684529091529020805460ff19166001179055612aa73390565b6001600160a01b0316816001600160a01b0316837f2f8788117e7eff1d82e926ec794901d17c78024a50270940304540a733656f0d60405160405180910390a45050565b60006112197f8b73c3c69bb8fe3d512ecc4cf759cc79239f7b179b0ffacaa9a75d522b39400f612b1b6101c85490565b6101c9546040805160208101859052908101839052606081018290524660808201523060a082015260009060c0016040516020818303038152906040528051906020012090509392505050565b6000828152610260602090815260408083206001600160a01b038516845290915290205460ff16156112a6576000828152610260602090815260408083206001600160a01b0385168085529252808320805460ff1916905551339285917ff6391f5c32d9c69d2a47ea670b442974b53935d1edc7fd64eb21e047a839171b9190a45050565b6000438210612c3e5760405162461bcd60e51b815260206004820181905260248201527f436865636b706f696e74733a20626c6f636b206e6f7420796574206d696e65646044820152606401610c8f565b6000612c49836135ad565b84549091506000816005811115612ca7576000612c658461362d565b612c6f9085615ca8565b60008981526020902090915081015463ffffffff9081169086161015612c9757809150612ca5565b612ca2816001615cbf565b92505b505b6000612cb588868585613715565b90508015612cf157612cda88612ccc600184615ca8565b600091825260209091200190565b5464010000000090046001600160e01b0316612cf4565b60005b6001600160e01b031698975050505050505050565b6112a6828260405180602001604052806000815250613773565b6115a1816137f1565b612d3584612d23565b612d74868887876000604051602001612d519493929190615ace565b60408051601f1981840301815260208301909152600080835290913391906138a1565b6065546040517f7a14574800000000000000000000000000000000000000000000000000000000815261ffff881660048201523060248201526000916001600160a01b031690637a14574890604401602060405180830381865afa158015612de0573d6000803e3d6000fd5b505050506040513d601f19601f82011682018060405250810190612e049190615cd7565b905085604051612e149190615ab2565b6040805191829003822087835267ffffffffffffffff841660208401529161ffff8a16916001600160a01b038c16917f024797cc77ce15dc717112d54fb1df125fdfd8c81344fb046c5e074427ce1543910160405180910390a45050505050505050565b6001600160a01b0382811660008181526101fc602052604080822080548686166001600160a01b0319821681179092559151919094169392849290917f3134e8a2e6d97e929a7e54011ea5485d7d196dd5f0ba4d4ef95803e8e3fc257f9190a46110508183612ee686613a45565b613a50565b60008060008084806020019051810190612f059190615cf4565b6014830151939750919550935091508115612fa157610293546001600160a01b031615612f9c576102935460405163182eb7ff60e01b81526001600160a01b0387811660048301528381166024830152604482018690529091169063182eb7ff90606401600060405180830381600087803b158015612f8357600080fd5b505af1158015612f97573d6000803e3d6000fd5b505050505b61201f565b600083815261013460205260409020546001600160a01b031615612fc457600080fd5b612fce8184612d09565b806001600160a01b031688604051612fe69190615ab2565b6040805191829003822086835267ffffffffffffffff8b1660208401529161ffff8d16917f64e10c37f404d128982dce114f5d233c14c5c7f6d8db93099e3d99dacb9e27ba910160405180910390a4505050505050505050565b603380546001600160a01b038381166001600160a01b0319831681179093556040519116919082907f8be0079c531659141344cd1fd0a4f28419497f9722a3daafe3b4186f6b6457e090600090a35050565b600054610100900460ff166130fd5760405162461bcd60e51b815260206004820152602b60248201527f496e697469616c697a61626c653a20636f6e7472616374206973206e6f74206960448201526a6e697469616c697a696e6760a81b6064820152608401610c8f565b613105613b8f565b611050838383613c02565b805460009080156131415761312a83612ccc600184615ca8565b5464010000000090046001600160e01b03166112cd565b60009392505050565b816001600160a01b0316836001600160a01b0316036131ab5760405162461bcd60e51b815260206004820152601960248201527f4552433732313a20617070726f766520746f2063616c6c6572000000000000006044820152606401610c8f565b6001600160a01b0383811660008181526101376020908152604080832094871680845294825291829020805460ff191686151590811790915591519182527f17307eab39ab6107e8899845ad3d59bd9653f200f220920489ca2b5937696c31910160405180910390a3505050565b61322484848461282c565b61323084848484613c80565b61150c5760405162461bcd60e51b815260206004820152603260248201527f4552433732313a207472616e7366657220746f206e6f6e20455243373231526560448201527131b2b4bb32b91034b6b83632b6b2b73a32b960711b6064820152608401610c8f565b6000610de46132a4612aeb565b836040517f19010000000000000000000000000000000000000000000000000000000000006020820152602281018390526042810182905260009060620160405160208183030381529060405280519060200120905092915050565b600080600061331187878787613dc9565b9150915061331e81613e8a565b5095945050505050565b6001600160a01b03811660009081526101ff602052604090208054600181018255905b50919050565b60606102928054610dfa9061571f565b6060600061336e83613fef565b600101905060008167ffffffffffffffff81111561338e5761338e614c44565b6040519080825280601f01601f1916602001820160405280156133b8576020820181803683370190505b5090508181016020015b600019017f3031323334353637383961626364656600000000000000000000000000000000600a86061a8153600a85049450846133c257509392505050565b60006001600160e01b031982161580610de45750610de4826140d1565b61342a84848484614143565b6001600160a01b0383161561150c57610293546001600160a01b0316156134bf576102935460405163182eb7ff60e01b81526001600160a01b0386811660048301528581166024830152604482018590529091169063182eb7ff90606401600060405180830381600087803b1580156134a257600080fd5b505af11580156134b6573d6000803e3d6000fd5b5050505061150c565b61029354600160a01b900461ffff161561150c5761029354604051606085901b6bffffffffffffffffffffffff1916602082015261150c91600160a01b900461ffff1690869060340160408051601f1981840301815290829052612d5192918790600190602001615ace565b61150c848484846141cd565b6000828152610260602090815260408083206001600160a01b038516845290915290205460ff166112a65761356b816141dd565b6135768360206141ef565b604051602001613587929190615d77565b60408051601f198184030181529082905262461bcd60e51b8252610c8f91600401614e5c565b600063ffffffff8211156136295760405162461bcd60e51b815260206004820152602660248201527f53616665436173743a2076616c756520646f65736e27742066697420696e203360448201527f32206269747300000000000000000000000000000000000000000000000000006064820152608401610c8f565b5090565b60008160000361363f57506000919050565b6000600161364c846143d0565b901c6001901b9050600181848161366557613665615d61565b048201901c9050600181848161367d5761367d615d61565b048201901c9050600181848161369557613695615d61565b048201901c905060018184816136ad576136ad615d61565b048201901c905060018184816136c5576136c5615d61565b048201901c905060018184816136dd576136dd615d61565b048201901c905060018184816136f5576136f5615d61565b048201901c90506112cd8182858161370f5761370f615d61565b04614464565b60005b8183101561376b57600061372c848461447a565b60008781526020902090915063ffffffff86169082015463ffffffff16111561375757809250613765565b613762816001615cbf565b93505b50613718565b509392505050565b61377d8383614495565b61378a6000848484613c80565b6110505760405162461bcd60e51b815260206004820152603260248201527f4552433732313a207472616e7366657220746f206e6f6e20455243373231526560448201527131b2b4bb32b91034b6b83632b6b2b73a32b960711b6064820152608401610c8f565b60006137fc82611663565b905061380c81600084600161341e565b61381582611663565b60008381526101366020908152604080832080546001600160a01b03199081169091556001600160a01b03851680855261013584528285208054600019019055878552610134909352818420805490911690555192935084927fddf252ad1be2c89b69c2b068fc378daa952ba7f163c4a11628f55a4df523b3ef908390a46112a681600084600161352b565b61ffff8516600090815260666020526040812080546138bf9061571f565b80601f01602080910402602001604051908101604052809291908181526020018280546138eb9061571f565b80156139385780601f1061390d57610100808354040283529160200191613938565b820191906000526020600020905b81548152906001019060200180831161391b57829003601f168201915b5050505050905080516000036139b65760405162461bcd60e51b815260206004820152603060248201527f4c7a4170703a2064657374696e6174696f6e20636861696e206973206e6f742060448201527f61207472757374656420736f75726365000000000000000000000000000000006064820152608401610c8f565b6065546040517fc58031000000000000000000000000000000000000000000000000000000000081526001600160a01b039091169063c5803100903490613a0b908a9086908b908b908b908b90600401615df8565b6000604051808303818588803b158015613a2457600080fd5b505af1158015613a38573d6000803e3d6000fd5b5050505050505050505050565b6000610de48261174a565b816001600160a01b0316836001600160a01b031614158015613a725750600081115b15611050576001600160a01b03831615613b01576001600160a01b03831660009081526101fd602052604081208190613aae9061463c85614648565b91509150846001600160a01b03167fdec2bacdd2f05b59de34da9b523dff8be42e5e38e818c82fdb0bae774387a7248383604051613af6929190918252602082015260400190565b60405180910390a250505b6001600160a01b03821615611050576001600160a01b03821660009081526101fd602052604081208190613b389061468085614648565b91509150836001600160a01b03167fdec2bacdd2f05b59de34da9b523dff8be42e5e38e818c82fdb0bae774387a7248383604051613b80929190918252602082015260400190565b60405180910390a25050505050565b600054610100900460ff16613bfa5760405162461bcd60e51b815260206004820152602b60248201527f496e697469616c697a61626c653a20636f6e7472616374206973206e6f74206960448201526a6e697469616c697a696e6760a81b6064820152608401610c8f565b6117f761468c565b600054610100900460ff16613c6d5760405162461bcd60e51b815260206004820152602b60248201527f496e697469616c697a61626c653a20636f6e7472616374206973206e6f74206960448201526a6e697469616c697a696e6760a81b6064820152608401610c8f565b613c778383614700565b61105081614786565b60006001600160a01b0384163b15613dc157604051630a85bd0160e11b81526001600160a01b0385169063150b7a0290613cc4903390899088908890600401615e5f565b6020604051808303816000875af1925050508015613cff575060408051601f3d908101601f19168201909252613cfc91810190615e9b565b60015b613da7573d808015613d2d576040519150601f19603f3d011682016040523d82523d6000602084013e613d32565b606091505b508051600003613d9f5760405162461bcd60e51b815260206004820152603260248201527f4552433732313a207472616e7366657220746f206e6f6e20455243373231526560448201527131b2b4bb32b91034b6b83632b6b2b73a32b960711b6064820152608401610c8f565b805181602001fd5b6001600160e01b031916630a85bd0160e11b14905061252e565b50600161252e565b6000807f7fffffffffffffffffffffffffffffff5d576e7357a4501ddfe92f46681b20a0831115613e00575060009050600361228b565b6040805160008082526020820180845289905260ff881692820192909252606081018690526080810185905260019060a0016020604051602081039080840390855afa158015613e54573d6000803e3d6000fd5b5050604051601f1901519150506001600160a01b038116613e7d5760006001925092505061228b565b9660009650945050505050565b6000816004811115613e9e57613e9e615eb8565b03613ea65750565b6001816004811115613eba57613eba615eb8565b03613f075760405162461bcd60e51b815260206004820152601860248201527f45434453413a20696e76616c6964207369676e617475726500000000000000006044820152606401610c8f565b6002816004811115613f1b57613f1b615eb8565b03613f685760405162461bcd60e51b815260206004820152601f60248201527f45434453413a20696e76616c6964207369676e6174757265206c656e677468006044820152606401610c8f565b6003816004811115613f7c57613f7c615eb8565b036115a15760405162461bcd60e51b815260206004820152602260248201527f45434453413a20696e76616c6964207369676e6174757265202773272076616c60448201527f75650000000000000000000000000000000000000000000000000000000000006064820152608401610c8f565b6000807a184f03e93ff9f4daa797ed6e38ed64bf6a1f0100000000000000008310614038577a184f03e93ff9f4daa797ed6e38ed64bf6a1f010000000000000000830492506040015b6d04ee2d6d415b85acef81000000008310614064576d04ee2d6d415b85acef8100000000830492506020015b662386f26fc10000831061408257662386f26fc10000830492506010015b6305f5e100831061409a576305f5e100830492506008015b61271083106140ae57612710830492506004015b606483106140c0576064830492506002015b600a8310610de45760010192915050565b60006001600160e01b031982167f80ac58cd00000000000000000000000000000000000000000000000000000000148061413457506001600160e01b031982167f5b5e139f00000000000000000000000000000000000000000000000000000000145b80610de45750610de4826147fa565b600181111561150c576001600160a01b0384161561418a576001600160a01b0384166000908152610135602052604081208054839290614184908490615ca8565b90915550505b6001600160a01b0383161561150c576001600160a01b03831660009081526101356020526040812080548392906141c2908490615cbf565b909155505050505050565b6141d8848483614861565b61150c565b6060610de46001600160a01b03831660145b606060006141fe836002615ece565b614209906002615cbf565b67ffffffffffffffff81111561422157614221614c44565b6040519080825280601f01601f19166020018201604052801561424b576020820181803683370190505b5090507f30000000000000000000000000000000000000000000000000000000000000008160008151811061428257614282615a3f565b60200101906001600160f81b031916908160001a9053507f7800000000000000000000000000000000000000000000000000000000000000816001815181106142cd576142cd615a3f565b60200101906001600160f81b031916908160001a90535060006142f1846002615ece565b6142fc906001615cbf565b90505b6001811115614381577f303132333435363738396162636465660000000000000000000000000000000085600f166010811061433d5761433d615a3f565b1a60f81b82828151811061435357614353615a3f565b60200101906001600160f81b031916908160001a90535060049490941c9361437a81615eed565b90506142ff565b5083156112cd5760405162461bcd60e51b815260206004820181905260248201527f537472696e67733a20686578206c656e67746820696e73756666696369656e746044820152606401610c8f565b600080608083901c156143e557608092831c92015b604083901c156143f757604092831c92015b602083901c1561440957602092831c92015b601083901c1561441b57601092831c92015b600883901c1561442d57600892831c92015b600483901c1561443f57600492831c92015b600283901c1561445157600292831c92015b600183901c15610de45760010192915050565b600081831061447357816112cd565b5090919050565b60006144896002848418615f04565b6112cd90848416615cbf565b6001600160a01b0382166144eb5760405162461bcd60e51b815260206004820181905260248201527f4552433732313a206d696e7420746f20746865207a65726f20616464726573736044820152606401610c8f565b600081815261013460205260409020546001600160a01b0316156145515760405162461bcd60e51b815260206004820152601c60248201527f4552433732313a20746f6b656e20616c7265616479206d696e746564000000006044820152606401610c8f565b61455f60008383600161341e565b600081815261013460205260409020546001600160a01b0316156145c55760405162461bcd60e51b815260206004820152601c60248201527f4552433732313a20746f6b656e20616c7265616479206d696e746564000000006044820152606401610c8f565b6001600160a01b0382166000818152610135602090815260408083208054600101905584835261013490915280822080546001600160a01b0319168417905551839291907fddf252ad1be2c89b69c2b068fc378daa952ba7f163c4a11628f55a4df523b3ef908290a46112a660008383600161352b565b60006112cd8284615ca8565b6000806146738561466e61465b88613110565b6001600160e01b0316868863ffffffff16565b6148d4565b915091505b935093915050565b60006112cd8284615cbf565b600054610100900460ff166146f75760405162461bcd60e51b815260206004820152602b60248201527f496e697469616c697a61626c653a20636f6e7472616374206973206e6f74206960448201526a6e697469616c697a696e6760a81b6064820152608401610c8f565b6117f733613040565b600054610100900460ff1661476b5760405162461bcd60e51b815260206004820152602b60248201527f496e697469616c697a61626c653a20636f6e7472616374206973206e6f74206960448201526a6e697469616c697a696e6760a81b6064820152608401610c8f565b610132614778838261597f565b50610133611050828261597f565b600054610100900460ff166147f15760405162461bcd60e51b815260206004820152602b60248201527f496e697469616c697a61626c653a20636f6e7472616374206973206e6f74206960448201526a6e697469616c697a696e6760a81b6064820152608401610c8f565b6115a18161490a565b60006001600160e01b031982167f7bb0080b000000000000000000000000000000000000000000000000000000001480610de457507f01ffc9a7000000000000000000000000000000000000000000000000000000006001600160e01b0319831614610de4565b6001600160a01b0383166148815761487e6101fe61468083614648565b50505b6001600160a01b0382166148a15761489e6101fe61463c83614648565b50505b6001600160a01b0383811660009081526101fc602052604080822054858416835291205461105092918216911683613a50565b6000806148f2846148e4436135ad565b6148ed8661497e565b6149fd565b6001600160e01b0391821693501690505b9250929050565b600054610100900460ff166149755760405162461bcd60e51b815260206004820152602b60248201527f496e697469616c697a61626c653a20636f6e7472616374206973206e6f74206960448201526a6e697469616c697a696e6760a81b6064820152608401610c8f565b6115a181614ba0565b60006001600160e01b038211156136295760405162461bcd60e51b815260206004820152602760248201527f53616665436173743a2076616c756520646f65736e27742066697420696e203260448201527f32342062697473000000000000000000000000000000000000000000000000006064820152608401610c8f565b825460009081908015614b46576000614a1b87612ccc600185615ca8565b60408051808201909152905463ffffffff8082168084526401000000009092046001600160e01b031660208401529192509087161015614a9d5760405162461bcd60e51b815260206004820152601760248201527f436865636b706f696e743a20696e76616c6964206b65790000000000000000006044820152606401610c8f565b805163ffffffff808816911603614ae65784614abe88612ccc600186615ca8565b80546001600160e01b03929092166401000000000263ffffffff909216919091179055614b36565b6040805180820190915263ffffffff80881682526001600160e01b0380881660208085019182528b54600181018d5560008d81529190912094519151909216640100000000029216919091179101555b6020015192508391506146789050565b50506040805180820190915263ffffffff80851682526001600160e01b0380851660208085019182528854600181018a5560008a815291822095519251909316640100000000029190931617920191909155905081614678565b600054610100900460ff16614c0b5760405162461bcd60e51b815260206004820152602b60248201527f496e697469616c697a61626c653a20636f6e7472616374206973206e6f74206960448201526a6e697469616c697a696e6760a81b6064820152608401610c8f565b606580546001600160a01b0319166001600160a01b0392909216919091179055565b803561ffff81168114614c3f57600080fd5b919050565b634e487b7160e01b600052604160045260246000fd5b60405160a0810167ffffffffffffffff81118282101715614c7d57614c7d614c44565b60405290565b604051601f8201601f1916810167ffffffffffffffff81118282101715614cac57614cac614c44565b604052919050565b600067ffffffffffffffff821115614cce57614cce614c44565b50601f01601f191660200190565b600082601f830112614ced57600080fd5b8135614d00614cfb82614cb4565b614c83565b818152846020838601011115614d1557600080fd5b816020850160208301376000918101602001919091529392505050565b67ffffffffffffffff811681146115a157600080fd5b60008060008060808587031215614d5e57600080fd5b614d6785614c2d565b9350602085013567ffffffffffffffff80821115614d8457600080fd5b614d9088838901614cdc565b945060408701359150614da282614d32565b90925060608601359080821115614db857600080fd5b50614dc587828801614cdc565b91505092959194509250565b6001600160e01b0319811681146115a157600080fd5b600060208284031215614df957600080fd5b81356112cd81614dd1565b60005b83811015614e1f578181015183820152602001614e07565b8381111561150c5750506000910152565b60008151808452614e48816020860160208601614e04565b601f01601f19169290920160200192915050565b6020815260006112cd6020830184614e30565b60008060408385031215614e8257600080fd5b614e8b83614c2d565b946020939093013593505050565b600060208284031215614eab57600080fd5b6112cd82614c2d565b600060208284031215614ec657600080fd5b5035919050565b6001600160a01b03811681146115a157600080fd5b8035614c3f81614ecd565b60008060408385031215614f0057600080fd5b8235614e8b81614ecd565b600080600060608486031215614f2057600080fd5b8335614f2b81614ecd565b92506020840135614f3b81614ecd565b929592945050506040919091013590565b80151581146115a157600080fd5b600080600080600060a08688031215614f7257600080fd5b614f7b86614c2d565b9450602086013567ffffffffffffffff80821115614f9857600080fd5b614fa489838a01614cdc565b95506040880135945060608801359150614fbd82614f4c565b90925060808701359080821115614fd357600080fd5b50614fe088828901614cdc565b9150509295509295909350565b6000806040838503121561500057600080fd5b82359150602083013561501281614ecd565b809150509250929050565b60008083601f84011261502f57600080fd5b50813567ffffffffffffffff81111561504757600080fd5b60208301915083602082850101111561490357600080fd5b60008060006040848603121561507457600080fd5b61507d84614c2d565b9250602084013567ffffffffffffffff81111561509957600080fd5b6150a58682870161501d565b9497909650939450505050565b600080600080600080600060e0888a0312156150cd57600080fd5b87356150d881614ecd565b96506150e660208901614c2d565b9550604088013567ffffffffffffffff8082111561510357600080fd5b61510f8b838c01614cdc565b965060608a0135955060808a0135915061512882614ecd565b90935060a08901359061513a82614ecd565b90925060c0890135908082111561515057600080fd5b5061515d8a828b01614cdc565b91505092959891949750929550565b6000806020838503121561517f57600080fd5b823567ffffffffffffffff81111561519657600080fd5b6151a28582860161501d565b90969095509350505050565b6000602082840312156151c057600080fd5b81356112cd81614ecd565b6000806000606084860312156151e057600080fd5b6151e984614c2d565b9250602084013567ffffffffffffffff81111561520557600080fd5b61521186828701614cdc565b925050604084013561522281614d32565b809150509250925092565b6000806040838503121561524057600080fd5b82359150602083013567ffffffffffffffff8082111561525f57600080fd5b9084019060a0828703121561527357600080fd5b61527b614c5a565b82358281111561528a57600080fd5b61529688828601614cdc565b8252506020830135602082015260408301356040820152606083013591506152bd82614f4c565b816060820152608083013560808201528093505050509250929050565b600082601f8301126152eb57600080fd5b8135602067ffffffffffffffff82111561530757615307614c44565b8160051b615316828201614c83565b928352848101820192828101908785111561533057600080fd5b83870192505b848310156153565761534783614c2d565b82529183019190830190615336565b979650505050505050565b60008060008060008060008060006101008a8c03121561538057600080fd5b893567ffffffffffffffff8082111561539857600080fd5b6153a48d838e01614cdc565b9a5060208c01359150808211156153ba57600080fd5b6153c68d838e01614cdc565b99506153d460408d01614ee2565b98506153e260608d01614ee2565b975060808c01359150808211156153f857600080fd5b6154048d838e016152da565b965061541260a08d01614ee2565b955061542060c08d01614c2d565b945060e08c013591508082111561543657600080fd5b506154438c828d0161501d565b915080935050809150509295985092959850929598565b60008060006060848603121561546f57600080fd5b61547884614c2d565b95602085013595506040909401359392505050565b600080604083850312156154a057600080fd5b82356154ab81614ecd565b9150602083013561501281614f4c565b6000602082840312156154cd57600080fd5b813567ffffffffffffffff8111156154e457600080fd5b61252e84828501614cdc565b6000806000806080858703121561550657600080fd5b843561551181614ecd565b9350602085013561552181614ecd565b925060408501359150606085013567ffffffffffffffff81111561554457600080fd5b614dc587828801614cdc565b60008060008060008060c0878903121561556957600080fd5b863561557481614ecd565b95506020870135945060408701359350606087013560ff8116811461559857600080fd5b9598949750929560808101359460a0909101359350915050565b60a0815260006155c560a0830188614e30565b60208301969096525060408101939093529015156060830152608090910152919050565b60008060008060006080868803121561560157600080fd5b61560a86614c2d565b945061561860208701614c2d565b935060408601359250606086013567ffffffffffffffff81111561563b57600080fd5b6156478882890161501d565b969995985093965092949392505050565b6000806000806080858703121561566e57600080fd5b61567785614c2d565b9350602085013561568781614ecd565b9250604085013561569781614ecd565b9396929550929360600135925050565b600080604083850312156156ba57600080fd5b82356156c581614ecd565b9150602083013561501281614ecd565b6000602082840312156156e757600080fd5b81356112cd81614f4c565b6000806000806080858703121561570857600080fd5b61571185614c2d565b935061568760208601614c2d565b600181811c9082168061573357607f821691505b60208210810361334b57634e487b7160e01b600052602260045260246000fd5b6040815260006157666040830185614e30565b90508260208301529392505050565b61ffff861681526001600160a01b038516602082015260a0604082015260006157a160a0830186614e30565b841515606084015282810360808401526157bb8185614e30565b98975050505050505050565b600080604083850312156157da57600080fd5b505080516020909101519092909150565b8183823760009101908152919050565b634e487b7160e01b600052601160045260246000fd5b600060018201615823576158236157fb565b5060010190565b81835281816020850137506000828201602090810191909152601f909101601f19169091010190565b61ffff8416815260406020820152600061252b60408301848661582a565b601f82111561105057600081815260208120601f850160051c810160208610156158985750805b601f850160051c820191505b818110156158b7578281556001016158a4565b505050505050565b67ffffffffffffffff8311156158d7576158d7614c44565b6158eb836158e5835461571f565b83615871565b6000601f84116001811461591f57600085156159075750838201355b600019600387901b1c1916600186901b178355610dd2565b600083815260209020601f19861690835b828110156159505786850135825560209485019460019092019101615930565b508682101561596d5760001960f88860031b161c19848701351681555b505060018560011b0183555050505050565b815167ffffffffffffffff81111561599957615999614c44565b6159ad816159a7845461571f565b84615871565b602080601f8311600181146159e257600084156159ca5750858301515b600019600386901b1c1916600185901b1785556158b7565b600085815260208120601f198616915b82811015615a11578886015182559484019460019091019084016159f2565b5085821015615a2f5787850151600019600388901b60f8161c191681555b5050505050600190811b01905550565b634e487b7160e01b600052603260045260246000fd5b60008351615a67818460208801614e04565b835190830190615a7b818360208801614e04565b01949350505050565b600061ffff80881683528087166020840152508460408301526080606083015261535660808301848661582a565b60008251615ac4818460208701614e04565b9190910192915050565b6001600160a01b0385168152608060208201526000615af06080830186614e30565b60408301949094525090151560609091015292915050565b61ffff851681526001600160a01b038416602082015260a060408201526000615b3460a0830185614e30565b921515606083015250808203608090910152600081526020019392505050565b6000808354615b628161571f565b60018281168015615b7a5760018114615b8f57615bbe565b60ff1984168752821515830287019450615bbe565b8760005260208060002060005b85811015615bb55781548a820152908401908201615b9c565b50505082870194505b50507f636f6e74726163742e6a736f6e0000000000000000000000000000000000000083525050600d019392505050565b600082601f830112615c0057600080fd5b8151615c0e614cfb82614cb4565b818152846020838601011115615c2357600080fd5b61252e826020830160208701614e04565b600060208284031215615c4657600080fd5b815167ffffffffffffffff811115615c5d57600080fd5b61252e84828501615bef565b61ffff85168152608060208201526000615c866080830186614e30565b67ffffffffffffffff8516604084015282810360608401526153568185614e30565b600082821015615cba57615cba6157fb565b500390565b60008219821115615cd257615cd26157fb565b500190565b600060208284031215615ce957600080fd5b81516112cd81614d32565b60008060008060808587031215615d0a57600080fd5b8451615d1581614ecd565b602086015190945067ffffffffffffffff811115615d3257600080fd5b615d3e87828801615bef565b935050604085015191506060850151615d5681614f4c565b939692955090935050565b634e487b7160e01b600052601260045260246000fd5b7f416363657373436f6e74726f6c3a206163636f756e7420000000000000000000815260008351615daf816017850160208801614e04565b7f206973206d697373696e6720726f6c65200000000000000000000000000000006017918401918201528351615dec816028840160208801614e04565b01602801949350505050565b61ffff8716815260c060208201526000615e1560c0830188614e30565b8281036040840152615e278188614e30565b6001600160a01b0387811660608601528616608085015283810360a08501529050615e528185614e30565b9998505050505050505050565b60006001600160a01b03808716835280861660208401525083604083015260806060830152615e916080830184614e30565b9695505050505050565b600060208284031215615ead57600080fd5b81516112cd81614dd1565b634e487b7160e01b600052602160045260246000fd5b6000816000190483118215151615615ee857615ee86157fb565b500290565b600081615efc57615efc6157fb565b506000190190565b600082615f2157634e487b7160e01b600052601260045260246000fd5b50049056fea2646970667358221220a61000c064866e0de84c58766fbb88ad38efd88afa476b9b396b98eaa6a3739f64736f6c634300080f0033",
  "linkReferences": {},
  "deployedLinkReferences": {}
}